{
  "_format": "hh-sol-artifact-1",
  "contractName": "MockTimeNonfungiblePositionManager",
  "sourceName": "contracts/test/MockTimeNonfungiblePositionManager.sol",
  "abi": [
    {
      "inputs": [
        {
          "internalType": "address",
          "name": "_factory",
          "type": "address"
        },
        {
          "internalType": "address",
          "name": "_WETH9",
          "type": "address"
        },
        {
          "internalType": "address",
          "name": "_tokenDescriptor",
          "type": "address"
        }
      ],
      "stateMutability": "nonpayable",
      "type": "constructor"
    },
    {
      "anonymous": false,
      "inputs": [
        {
          "indexed": true,
          "internalType": "address",
          "name": "owner",
          "type": "address"
        },
        {
          "indexed": true,
          "internalType": "address",
          "name": "approved",
          "type": "address"
        },
        {
          "indexed": true,
          "internalType": "uint256",
          "name": "tokenId",
          "type": "uint256"
        }
      ],
      "name": "Approval",
      "type": "event"
    },
    {
      "anonymous": false,
      "inputs": [
        {
          "indexed": true,
          "internalType": "address",
          "name": "owner",
          "type": "address"
        },
        {
          "indexed": true,
          "internalType": "address",
          "name": "operator",
          "type": "address"
        },
        {
          "indexed": false,
          "internalType": "bool",
          "name": "approved",
          "type": "bool"
        }
      ],
      "name": "ApprovalForAll",
      "type": "event"
    },
    {
      "anonymous": false,
      "inputs": [
        {
          "indexed": true,
          "internalType": "uint256",
          "name": "tokenId",
          "type": "uint256"
        },
        {
          "indexed": false,
          "internalType": "address",
          "name": "recipient",
          "type": "address"
        },
        {
          "indexed": false,
          "internalType": "uint256",
          "name": "amount0",
          "type": "uint256"
        },
        {
          "indexed": false,
          "internalType": "uint256",
          "name": "amount1",
          "type": "uint256"
        }
      ],
      "name": "Collect",
      "type": "event"
    },
    {
      "anonymous": false,
      "inputs": [
        {
          "indexed": true,
          "internalType": "uint256",
          "name": "tokenId",
          "type": "uint256"
        },
        {
          "indexed": false,
          "internalType": "uint128",
          "name": "liquidity",
          "type": "uint128"
        },
        {
          "indexed": false,
          "internalType": "uint256",
          "name": "amount0",
          "type": "uint256"
        },
        {
          "indexed": false,
          "internalType": "uint256",
          "name": "amount1",
          "type": "uint256"
        }
      ],
      "name": "DecreaseLiquidity",
      "type": "event"
    },
    {
      "anonymous": false,
      "inputs": [
        {
          "indexed": true,
          "internalType": "uint256",
          "name": "tokenId",
          "type": "uint256"
        },
        {
          "indexed": false,
          "internalType": "uint128",
          "name": "liquidity",
          "type": "uint128"
        },
        {
          "indexed": false,
          "internalType": "uint256",
          "name": "amount0",
          "type": "uint256"
        },
        {
          "indexed": false,
          "internalType": "uint256",
          "name": "amount1",
          "type": "uint256"
        }
      ],
      "name": "IncreaseLiquidity",
      "type": "event"
    },
    {
      "anonymous": false,
      "inputs": [
        {
          "indexed": true,
          "internalType": "address",
          "name": "pool",
          "type": "address"
        },
        {
          "indexed": false,
          "internalType": "uint128",
          "name": "calculatedLiquidity",
          "type": "uint128"
        },
        {
          "indexed": false,
          "internalType": "uint256",
          "name": "amount0Desired",
          "type": "uint256"
        },
        {
          "indexed": false,
          "internalType": "uint256",
          "name": "amount1Desired",
          "type": "uint256"
        }
      ],
      "name": "LiquidityCalculationCompleted",
      "type": "event"
    },
    {
      "anonymous": false,
      "inputs": [
        {
          "indexed": true,
          "internalType": "address",
          "name": "pool",
          "type": "address"
        },
        {
          "indexed": false,
          "internalType": "uint160",
          "name": "sqrtPriceX96",
          "type": "uint160"
        },
        {
          "indexed": false,
          "internalType": "uint160",
          "name": "sqrtRatioAX96",
          "type": "uint160"
        },
        {
          "indexed": false,
          "internalType": "uint160",
          "name": "sqrtRatioBX96",
          "type": "uint160"
        },
        {
          "indexed": false,
          "internalType": "uint256",
          "name": "amount0Desired",
          "type": "uint256"
        },
        {
          "indexed": false,
          "internalType": "uint256",
          "name": "amount1Desired",
          "type": "uint256"
        }
      ],
      "name": "LiquidityCalculationStarted",
      "type": "event"
    },
    {
      "anonymous": false,
      "inputs": [
        {
          "indexed": true,
          "internalType": "address",
          "name": "pool",
          "type": "address"
        },
        {
          "indexed": false,
          "internalType": "uint256",
          "name": "amount0Owed",
          "type": "uint256"
        },
        {
          "indexed": false,
          "internalType": "uint256",
          "name": "amount1Owed",
          "type": "uint256"
        },
        {
          "indexed": true,
          "internalType": "address",
          "name": "payer",
          "type": "address"
        }
      ],
      "name": "MintCallbackTriggered",
      "type": "event"
    },
    {
      "anonymous": false,
      "inputs": [
        {
          "indexed": true,
          "internalType": "address",
          "name": "pool",
          "type": "address"
        },
        {
          "indexed": true,
          "internalType": "address",
          "name": "recipient",
          "type": "address"
        },
        {
          "indexed": false,
          "internalType": "int24",
          "name": "tickLower",
          "type": "int24"
        },
        {
          "indexed": false,
          "internalType": "int24",
          "name": "tickUpper",
          "type": "int24"
        },
        {
          "indexed": false,
          "internalType": "uint128",
          "name": "liquidity",
          "type": "uint128"
        },
        {
          "indexed": false,
          "internalType": "uint256",
          "name": "amount0",
          "type": "uint256"
        },
        {
          "indexed": false,
          "internalType": "uint256",
          "name": "amount1",
          "type": "uint256"
        }
      ],
      "name": "PoolMintCalled",
      "type": "event"
    },
    {
      "anonymous": false,
      "inputs": [
        {
          "indexed": true,
          "internalType": "address",
          "name": "from",
          "type": "address"
        },
        {
          "indexed": true,
          "internalType": "address",
          "name": "to",
          "type": "address"
        },
        {
          "indexed": true,
          "internalType": "uint256",
          "name": "tokenId",
          "type": "uint256"
        }
      ],
      "name": "Transfer",
      "type": "event"
    },
    {
      "inputs": [],
      "name": "DOMAIN_SEPARATOR",
      "outputs": [
        {
          "internalType": "bytes32",
          "name": "",
          "type": "bytes32"
        }
      ],
      "stateMutability": "view",
      "type": "function"
    },
    {
      "inputs": [],
      "name": "PERMIT_TYPEHASH",
      "outputs": [
        {
          "internalType": "bytes32",
          "name": "",
          "type": "bytes32"
        }
      ],
      "stateMutability": "view",
      "type": "function"
    },
    {
      "inputs": [],
      "name": "WETH9",
      "outputs": [
        {
          "internalType": "address",
          "name": "",
          "type": "address"
        }
      ],
      "stateMutability": "view",
      "type": "function"
    },
    {
      "inputs": [
        {
          "internalType": "address",
          "name": "to",
          "type": "address"
        },
        {
          "internalType": "uint256",
          "name": "tokenId",
          "type": "uint256"
        }
      ],
      "name": "approve",
      "outputs": [],
      "stateMutability": "nonpayable",
      "type": "function"
    },
    {
      "inputs": [
        {
          "internalType": "address",
          "name": "owner",
          "type": "address"
        }
      ],
      "name": "balanceOf",
      "outputs": [
        {
          "internalType": "uint256",
          "name": "",
          "type": "uint256"
        }
      ],
      "stateMutability": "view",
      "type": "function"
    },
    {
      "inputs": [],
      "name": "baseURI",
      "outputs": [
        {
          "internalType": "string",
          "name": "",
          "type": "string"
        }
      ],
      "stateMutability": "pure",
      "type": "function"
    },
    {
      "inputs": [
        {
          "internalType": "uint256",
          "name": "tokenId",
          "type": "uint256"
        }
      ],
      "name": "burn",
      "outputs": [],
      "stateMutability": "payable",
      "type": "function"
    },
    {
      "inputs": [
        {
          "components": [
            {
              "internalType": "uint256",
              "name": "tokenId",
              "type": "uint256"
            },
            {
              "internalType": "address",
              "name": "recipient",
              "type": "address"
            },
            {
              "internalType": "uint128",
              "name": "amount0Max",
              "type": "uint128"
            },
            {
              "internalType": "uint128",
              "name": "amount1Max",
              "type": "uint128"
            }
          ],
          "internalType": "struct INonfungiblePositionManager.CollectParams",
          "name": "params",
          "type": "tuple"
        }
      ],
      "name": "collect",
      "outputs": [
        {
          "internalType": "uint256",
          "name": "amount0",
          "type": "uint256"
        },
        {
          "internalType": "uint256",
          "name": "amount1",
          "type": "uint256"
        }
      ],
      "stateMutability": "payable",
      "type": "function"
    },
    {
      "inputs": [
        {
          "internalType": "address",
          "name": "token0",
          "type": "address"
        },
        {
          "internalType": "address",
          "name": "token1",
          "type": "address"
        },
        {
          "internalType": "uint24",
          "name": "fee",
          "type": "uint24"
        },
        {
          "internalType": "uint160",
          "name": "sqrtPriceX96",
          "type": "uint160"
        }
      ],
      "name": "createAndInitializePoolIfNecessary",
      "outputs": [
        {
          "internalType": "address",
          "name": "pool",
          "type": "address"
        }
      ],
      "stateMutability": "payable",
      "type": "function"
    },
    {
      "inputs": [
        {
          "components": [
            {
              "internalType": "uint256",
              "name": "tokenId",
              "type": "uint256"
            },
            {
              "internalType": "uint128",
              "name": "liquidity",
              "type": "uint128"
            },
            {
              "internalType": "uint256",
              "name": "amount0Min",
              "type": "uint256"
            },
            {
              "internalType": "uint256",
              "name": "amount1Min",
              "type": "uint256"
            },
            {
              "internalType": "uint256",
              "name": "deadline",
              "type": "uint256"
            }
          ],
          "internalType": "struct INonfungiblePositionManager.DecreaseLiquidityParams",
          "name": "params",
          "type": "tuple"
        }
      ],
      "name": "decreaseLiquidity",
      "outputs": [
        {
          "internalType": "uint256",
          "name": "amount0",
          "type": "uint256"
        },
        {
          "internalType": "uint256",
          "name": "amount1",
          "type": "uint256"
        }
      ],
      "stateMutability": "payable",
      "type": "function"
    },
    {
      "inputs": [],
      "name": "factory",
      "outputs": [
        {
          "internalType": "address",
          "name": "",
          "type": "address"
        }
      ],
      "stateMutability": "view",
      "type": "function"
    },
    {
      "inputs": [
        {
          "internalType": "uint256",
          "name": "tokenId",
          "type": "uint256"
        }
      ],
      "name": "getApproved",
      "outputs": [
        {
          "internalType": "address",
          "name": "",
          "type": "address"
        }
      ],
      "stateMutability": "view",
      "type": "function"
    },
    {
      "inputs": [
        {
          "components": [
            {
              "internalType": "uint256",
              "name": "tokenId",
              "type": "uint256"
            },
            {
              "internalType": "uint256",
              "name": "amount0Desired",
              "type": "uint256"
            },
            {
              "internalType": "uint256",
              "name": "amount1Desired",
              "type": "uint256"
            },
            {
              "internalType": "uint256",
              "name": "amount0Min",
              "type": "uint256"
            },
            {
              "internalType": "uint256",
              "name": "amount1Min",
              "type": "uint256"
            },
            {
              "internalType": "uint256",
              "name": "deadline",
              "type": "uint256"
            }
          ],
          "internalType": "struct INonfungiblePositionManager.IncreaseLiquidityParams",
          "name": "params",
          "type": "tuple"
        }
      ],
      "name": "increaseLiquidity",
      "outputs": [
        {
          "internalType": "uint128",
          "name": "liquidity",
          "type": "uint128"
        },
        {
          "internalType": "uint256",
          "name": "amount0",
          "type": "uint256"
        },
        {
          "internalType": "uint256",
          "name": "amount1",
          "type": "uint256"
        }
      ],
      "stateMutability": "payable",
      "type": "function"
    },
    {
      "inputs": [
        {
          "internalType": "address",
          "name": "owner",
          "type": "address"
        },
        {
          "internalType": "address",
          "name": "operator",
          "type": "address"
        }
      ],
      "name": "isApprovedForAll",
      "outputs": [
        {
          "internalType": "bool",
          "name": "",
          "type": "bool"
        }
      ],
      "stateMutability": "view",
      "type": "function"
    },
    {
      "inputs": [
        {
          "components": [
            {
              "internalType": "address",
              "name": "token0",
              "type": "address"
            },
            {
              "internalType": "address",
              "name": "token1",
              "type": "address"
            },
            {
              "internalType": "uint24",
              "name": "fee",
              "type": "uint24"
            },
            {
              "internalType": "int24",
              "name": "tickLower",
              "type": "int24"
            },
            {
              "internalType": "int24",
              "name": "tickUpper",
              "type": "int24"
            },
            {
              "internalType": "uint256",
              "name": "amount0Desired",
              "type": "uint256"
            },
            {
              "internalType": "uint256",
              "name": "amount1Desired",
              "type": "uint256"
            },
            {
              "internalType": "uint256",
              "name": "amount0Min",
              "type": "uint256"
            },
            {
              "internalType": "uint256",
              "name": "amount1Min",
              "type": "uint256"
            },
            {
              "internalType": "address",
              "name": "recipient",
              "type": "address"
            },
            {
              "internalType": "uint256",
              "name": "deadline",
              "type": "uint256"
            }
          ],
          "internalType": "struct INonfungiblePositionManager.MintParams",
          "name": "params",
          "type": "tuple"
        }
      ],
      "name": "mint",
      "outputs": [
        {
          "internalType": "uint256",
          "name": "tokenId",
          "type": "uint256"
        },
        {
          "internalType": "uint128",
          "name": "liquidity",
          "type": "uint128"
        },
        {
          "internalType": "uint256",
          "name": "amount0",
          "type": "uint256"
        },
        {
          "internalType": "uint256",
          "name": "amount1",
          "type": "uint256"
        }
      ],
      "stateMutability": "payable",
      "type": "function"
    },
    {
      "inputs": [
        {
          "internalType": "bytes[]",
          "name": "data",
          "type": "bytes[]"
        }
      ],
      "name": "multicall",
      "outputs": [
        {
          "internalType": "bytes[]",
          "name": "results",
          "type": "bytes[]"
        }
      ],
      "stateMutability": "payable",
      "type": "function"
    },
    {
      "inputs": [],
      "name": "name",
      "outputs": [
        {
          "internalType": "string",
          "name": "",
          "type": "string"
        }
      ],
      "stateMutability": "view",
      "type": "function"
    },
    {
      "inputs": [
        {
          "internalType": "uint256",
          "name": "tokenId",
          "type": "uint256"
        }
      ],
      "name": "ownerOf",
      "outputs": [
        {
          "internalType": "address",
          "name": "",
          "type": "address"
        }
      ],
      "stateMutability": "view",
      "type": "function"
    },
    {
      "inputs": [
        {
          "internalType": "address",
          "name": "spender",
          "type": "address"
        },
        {
          "internalType": "uint256",
          "name": "tokenId",
          "type": "uint256"
        },
        {
          "internalType": "uint256",
          "name": "deadline",
          "type": "uint256"
        },
        {
          "internalType": "uint8",
          "name": "v",
          "type": "uint8"
        },
        {
          "internalType": "bytes32",
          "name": "r",
          "type": "bytes32"
        },
        {
          "internalType": "bytes32",
          "name": "s",
          "type": "bytes32"
        }
      ],
      "name": "permit",
      "outputs": [],
      "stateMutability": "payable",
      "type": "function"
    },
    {
      "inputs": [
        {
          "internalType": "uint256",
          "name": "tokenId",
          "type": "uint256"
        }
      ],
      "name": "positions",
      "outputs": [
        {
          "internalType": "uint96",
          "name": "nonce",
          "type": "uint96"
        },
        {
          "internalType": "address",
          "name": "operator",
          "type": "address"
        },
        {
          "internalType": "address",
          "name": "token0",
          "type": "address"
        },
        {
          "internalType": "address",
          "name": "token1",
          "type": "address"
        },
        {
          "internalType": "uint24",
          "name": "fee",
          "type": "uint24"
        },
        {
          "internalType": "int24",
          "name": "tickLower",
          "type": "int24"
        },
        {
          "internalType": "int24",
          "name": "tickUpper",
          "type": "int24"
        },
        {
          "internalType": "uint128",
          "name": "liquidity",
          "type": "uint128"
        },
        {
          "internalType": "uint256",
          "name": "feeGrowthInside0LastX128",
          "type": "uint256"
        },
        {
          "internalType": "uint256",
          "name": "feeGrowthInside1LastX128",
          "type": "uint256"
        },
        {
          "internalType": "uint128",
          "name": "tokensOwed0",
          "type": "uint128"
        },
        {
          "internalType": "uint128",
          "name": "tokensOwed1",
          "type": "uint128"
        }
      ],
      "stateMutability": "view",
      "type": "function"
    },
    {
      "inputs": [],
      "name": "refundETH",
      "outputs": [],
      "stateMutability": "payable",
      "type": "function"
    },
    {
      "inputs": [
        {
          "internalType": "address",
          "name": "from",
          "type": "address"
        },
        {
          "internalType": "address",
          "name": "to",
          "type": "address"
        },
        {
          "internalType": "uint256",
          "name": "tokenId",
          "type": "uint256"
        }
      ],
      "name": "safeTransferFrom",
      "outputs": [],
      "stateMutability": "nonpayable",
      "type": "function"
    },
    {
      "inputs": [
        {
          "internalType": "address",
          "name": "from",
          "type": "address"
        },
        {
          "internalType": "address",
          "name": "to",
          "type": "address"
        },
        {
          "internalType": "uint256",
          "name": "tokenId",
          "type": "uint256"
        },
        {
          "internalType": "bytes",
          "name": "_data",
          "type": "bytes"
        }
      ],
      "name": "safeTransferFrom",
      "outputs": [],
      "stateMutability": "nonpayable",
      "type": "function"
    },
    {
      "inputs": [
        {
          "internalType": "address",
          "name": "token",
          "type": "address"
        },
        {
          "internalType": "uint256",
          "name": "value",
          "type": "uint256"
        },
        {
          "internalType": "uint256",
          "name": "deadline",
          "type": "uint256"
        },
        {
          "internalType": "uint8",
          "name": "v",
          "type": "uint8"
        },
        {
          "internalType": "bytes32",
          "name": "r",
          "type": "bytes32"
        },
        {
          "internalType": "bytes32",
          "name": "s",
          "type": "bytes32"
        }
      ],
      "name": "selfPermit",
      "outputs": [],
      "stateMutability": "payable",
      "type": "function"
    },
    {
      "inputs": [
        {
          "internalType": "address",
          "name": "token",
          "type": "address"
        },
        {
          "internalType": "uint256",
          "name": "nonce",
          "type": "uint256"
        },
        {
          "internalType": "uint256",
          "name": "expiry",
          "type": "uint256"
        },
        {
          "internalType": "uint8",
          "name": "v",
          "type": "uint8"
        },
        {
          "internalType": "bytes32",
          "name": "r",
          "type": "bytes32"
        },
        {
          "internalType": "bytes32",
          "name": "s",
          "type": "bytes32"
        }
      ],
      "name": "selfPermitAllowed",
      "outputs": [],
      "stateMutability": "payable",
      "type": "function"
    },
    {
      "inputs": [
        {
          "internalType": "address",
          "name": "token",
          "type": "address"
        },
        {
          "internalType": "uint256",
          "name": "nonce",
          "type": "uint256"
        },
        {
          "internalType": "uint256",
          "name": "expiry",
          "type": "uint256"
        },
        {
          "internalType": "uint8",
          "name": "v",
          "type": "uint8"
        },
        {
          "internalType": "bytes32",
          "name": "r",
          "type": "bytes32"
        },
        {
          "internalType": "bytes32",
          "name": "s",
          "type": "bytes32"
        }
      ],
      "name": "selfPermitAllowedIfNecessary",
      "outputs": [],
      "stateMutability": "payable",
      "type": "function"
    },
    {
      "inputs": [
        {
          "internalType": "address",
          "name": "token",
          "type": "address"
        },
        {
          "internalType": "uint256",
          "name": "value",
          "type": "uint256"
        },
        {
          "internalType": "uint256",
          "name": "deadline",
          "type": "uint256"
        },
        {
          "internalType": "uint8",
          "name": "v",
          "type": "uint8"
        },
        {
          "internalType": "bytes32",
          "name": "r",
          "type": "bytes32"
        },
        {
          "internalType": "bytes32",
          "name": "s",
          "type": "bytes32"
        }
      ],
      "name": "selfPermitIfNecessary",
      "outputs": [],
      "stateMutability": "payable",
      "type": "function"
    },
    {
      "inputs": [
        {
          "internalType": "address",
          "name": "operator",
          "type": "address"
        },
        {
          "internalType": "bool",
          "name": "approved",
          "type": "bool"
        }
      ],
      "name": "setApprovalForAll",
      "outputs": [],
      "stateMutability": "nonpayable",
      "type": "function"
    },
    {
      "inputs": [
        {
          "internalType": "uint256",
          "name": "_time",
          "type": "uint256"
        }
      ],
      "name": "setTime",
      "outputs": [],
      "stateMutability": "nonpayable",
      "type": "function"
    },
    {
      "inputs": [
        {
          "internalType": "bytes4",
          "name": "interfaceId",
          "type": "bytes4"
        }
      ],
      "name": "supportsInterface",
      "outputs": [
        {
          "internalType": "bool",
          "name": "",
          "type": "bool"
        }
      ],
      "stateMutability": "view",
      "type": "function"
    },
    {
      "inputs": [
        {
          "internalType": "address",
          "name": "token",
          "type": "address"
        },
        {
          "internalType": "uint256",
          "name": "amountMinimum",
          "type": "uint256"
        },
        {
          "internalType": "address",
          "name": "recipient",
          "type": "address"
        }
      ],
      "name": "sweepToken",
      "outputs": [],
      "stateMutability": "payable",
      "type": "function"
    },
    {
      "inputs": [],
      "name": "symbol",
      "outputs": [
        {
          "internalType": "string",
          "name": "",
          "type": "string"
        }
      ],
      "stateMutability": "view",
      "type": "function"
    },
    {
      "inputs": [
        {
          "internalType": "uint256",
          "name": "index",
          "type": "uint256"
        }
      ],
      "name": "tokenByIndex",
      "outputs": [
        {
          "internalType": "uint256",
          "name": "",
          "type": "uint256"
        }
      ],
      "stateMutability": "view",
      "type": "function"
    },
    {
      "inputs": [
        {
          "internalType": "address",
          "name": "owner",
          "type": "address"
        },
        {
          "internalType": "uint256",
          "name": "index",
          "type": "uint256"
        }
      ],
      "name": "tokenOfOwnerByIndex",
      "outputs": [
        {
          "internalType": "uint256",
          "name": "",
          "type": "uint256"
        }
      ],
      "stateMutability": "view",
      "type": "function"
    },
    {
      "inputs": [
        {
          "internalType": "uint256",
          "name": "tokenId",
          "type": "uint256"
        }
      ],
      "name": "tokenURI",
      "outputs": [
        {
          "internalType": "string",
          "name": "",
          "type": "string"
        }
      ],
      "stateMutability": "view",
      "type": "function"
    },
    {
      "inputs": [],
      "name": "totalSupply",
      "outputs": [
        {
          "internalType": "uint256",
          "name": "",
          "type": "uint256"
        }
      ],
      "stateMutability": "view",
      "type": "function"
    },
    {
      "inputs": [
        {
          "internalType": "address",
          "name": "from",
          "type": "address"
        },
        {
          "internalType": "address",
          "name": "to",
          "type": "address"
        },
        {
          "internalType": "uint256",
          "name": "tokenId",
          "type": "uint256"
        }
      ],
      "name": "transferFrom",
      "outputs": [],
      "stateMutability": "nonpayable",
      "type": "function"
    },
    {
      "inputs": [
        {
          "internalType": "uint256",
          "name": "amount0Owed",
          "type": "uint256"
        },
        {
          "internalType": "uint256",
          "name": "amount1Owed",
          "type": "uint256"
        },
        {
          "internalType": "bytes",
          "name": "data",
          "type": "bytes"
        }
      ],
      "name": "uniswapV3MintCallback",
      "outputs": [],
      "stateMutability": "nonpayable",
      "type": "function"
    },
    {
      "inputs": [
        {
          "internalType": "uint256",
          "name": "amountMinimum",
          "type": "uint256"
        },
        {
          "internalType": "address",
          "name": "recipient",
          "type": "address"
        }
      ],
      "name": "unwrapWETH9",
      "outputs": [],
      "stateMutability": "payable",
      "type": "function"
    },
    {
      "stateMutability": "payable",
      "type": "receive"
    }
  ],
  "bytecode": "0x610120604052600d80546001600160b01b0319166001176001600160b01b0316600160b01b1790553480156200003457600080fd5b50604051620064b4380380620064b48339810160408190526200005791620002e1565b82828282826040518060400160405280601b81526020017f556e697377617020563320506f736974696f6e73204e46542d563100000000008152506040518060400160405280600a815260200169554e492d56332d504f5360b01b815250604051806040016040528060018152602001603160f81b8152508282620000e96301ffc9a760e01b6200019360201b60201c565b8151620000fe90600690602085019062000218565b5080516200011490600790602084019062000218565b50620001276380ac58cd60e01b62000193565b62000139635b5e139f60e01b62000193565b6200014b63780e9d6360e01b62000193565b50508251602093840120608052805192019190912060a052506001600160601b0319606092831b811660c05290821b811660e05291901b1661010052506200032a9350505050565b6001600160e01b03198082161415620001f3576040805162461bcd60e51b815260206004820152601c60248201527f4552433136353a20696e76616c696420696e7465726661636520696400000000604482015290519081900360640190fd5b6001600160e01b0319166000908152602081905260409020805460ff19166001179055565b828054600181600116156101000203166002900490600052602060002090601f0160209004810192826200025057600085556200029b565b82601f106200026b57805160ff19168380011785556200029b565b828001600101855582156200029b579182015b828111156200029b5782518255916020019190600101906200027e565b50620002a9929150620002ad565b5090565b5b80821115620002a95760008155600101620002ae565b80516001600160a01b0381168114620002dc57600080fd5b919050565b600080600060608486031215620002f6578283fd5b6200030184620002c4565b92506200031160208501620002c4565b91506200032160408501620002c4565b90509250925092565b60805160a05160c05160601c60e05160601c6101005160601c616105620003af60003980612ac35250806102b45280611758528061184e52806118d65280613fba52806140005280614074525080610ae25280610e195280610ee05280612a5d5280612b635280612ed5528061377452508061153a52508061151952506161056000f3fe6080604052600436106102a45760003560e01c80634f6ccce71161016e578063ac9650d8116100cb578063d34879971161007f578063e985e9c511610064578063e985e9c514610730578063f3995c6714610750578063fc6f78651461076357610328565b8063d3487997146106fd578063df2ab5bb1461071d57610328565b8063c2e3140a116100b0578063c2e3140a146106b5578063c45a0155146106c8578063c87b56dd146106dd57610328565b8063ac9650d814610675578063b88d4fde1461069557610328565b8063883164561161012257806399fbab881161010757806399fbab881461060a578063a22cb46514610642578063a4a78f0c1461066257610328565b806388316456146105d257806395d89b41146105f557610328565b80636c0360eb116101535780636c0360eb1461058a57806370a082311461059f5780637ac2ff7b146105bf57610328565b80634f6ccce71461054a5780636352211e1461056a57610328565b806323b872dd1161021c57806342842e0e116101d05780634659a494116101b55780634659a4941461050f57806349404b7c146105225780634aa4a4fc1461053557610328565b806342842e0e146104dc57806342966c68146104fc57610328565b806330adf81f1161020157806330adf81f146104925780633644e515146104a75780633beb26c4146104bc57610328565b806323b872dd146104525780632f745c591461047257610328565b80630c49ccbe1161027357806313ead5621161025857806313ead562146103fb57806318160ddd1461040e578063219f5d171461043057610328565b80630c49ccbe146103d257806312210e8a146103f357610328565b806301ffc9a71461032d57806306fdde0314610363578063081812fc14610385578063095ea7b3146103b257610328565b3661032857336001600160a01b037f00000000000000000000000000000000000000000000000000000000000000001614610326576040805162461bcd60e51b815260206004820152600960248201527f4e6f742057455448390000000000000000000000000000000000000000000000604482015290519081900360640190fd5b005b600080fd5b34801561033957600080fd5b5061034d610348366004615503565b610776565b60405161035a9190615a7b565b60405180910390f35b34801561036f57600080fd5b506103786107b1565b60405161035a9190615b02565b34801561039157600080fd5b506103a56103a0366004615815565b610847565b60405161035a919061593f565b3480156103be57600080fd5b506103266103cd3660046153cd565b6108a3565b6103e56103e03660046155e0565b610979565b60405161035a929190615d07565b610326610de5565b6103a5610409366004615260565b610df7565b34801561041a57600080fd5b50610423611104565b60405161035a9190615a86565b61044361043e3660046155f1565b611115565b60405161035a93929190615c8e565b34801561045e57600080fd5b5061032661046d3660046152b9565b61144e565b34801561047e57600080fd5b5061042361048d3660046153cd565b6114a5565b34801561049e57600080fd5b506104236114d0565b3480156104b357600080fd5b506104236114f4565b3480156104c857600080fd5b506103266104d7366004615815565b6115b2565b3480156104e857600080fd5b506103266104f73660046152b9565b6115b7565b61032661050a366004615815565b6115d2565b61032661051d366004615439565b6116a1565b61032661053036600461582d565b611754565b34801561054157600080fd5b506103a56118d4565b34801561055657600080fd5b50610423610565366004615815565b6118f8565b34801561057657600080fd5b506103a5610585366004615815565b61190e565b34801561059657600080fd5b50610378611936565b3480156105ab57600080fd5b506104236105ba36600461520c565b61193b565b6103266105cd366004615439565b6119a3565b6105e56105e03660046156ad565b611e4f565b60405161035a9493929190615ce3565b34801561060157600080fd5b506103786123b0565b34801561061657600080fd5b5061062a610625366004615815565b612411565b60405161035a9c9b9a99989796959493929190615d15565b34801561064e57600080fd5b5061032661065d3660046153a0565b612640565b610326610670366004615439565b612763565b610688610683366004615494565b612815565b60405161035a91906159fd565b3480156106a157600080fd5b506103266106b03660046152f9565b612955565b6103266106c3366004615439565b6129b3565b3480156106d457600080fd5b506103a5612a5b565b3480156106e957600080fd5b506103786106f8366004615815565b612a7f565b34801561070957600080fd5b50610326610718366004615874565b612b4e565b61032661072b3660046153f8565b612c1d565b34801561073c57600080fd5b5061034d61074b366004615228565b612d00565b61032661075e366004615439565b612d2e565b6103e56107713660046155c9565b612db9565b7fffffffff00000000000000000000000000000000000000000000000000000000811660009081526020819052604090205460ff165b919050565b60068054604080516020601f600260001961010060018816150201909516949094049384018190048102820181019092528281526060939092909183018282801561083d5780601f106108125761010080835404028352916020019161083d565b820191906000526020600020905b81548152906001019060200180831161082057829003601f168201915b5050505050905090565b6000610852826132d7565b6108775760405162461bcd60e51b815260040161086e90615b4c565b60405180910390fd5b506000908152600c60205260409020546c0100000000000000000000000090046001600160a01b031690565b60006108ae8261190e565b9050806001600160a01b0316836001600160a01b031614156109015760405162461bcd60e51b81526004018080602001828103825260218152602001806160a76021913960400191505060405180910390fd5b806001600160a01b03166109136132e4565b6001600160a01b0316148061092f575061092f8161074b6132e4565b61096a5760405162461bcd60e51b8152600401808060200182810382526038815260200180615fd16038913960400191505060405180910390fd5b61097483836132e8565b505050565b6000808235610988338261336c565b6109a45760405162461bcd60e51b815260040161086e90615b15565b8360800135806109b2613408565b1115610a05576040805162461bcd60e51b815260206004820152601360248201527f5472616e73616374696f6e20746f6f206f6c6400000000000000000000000000604482015290519081900360640190fd5b6000610a1760408701602088016156bf565b6001600160801b031611610a2a57600080fd5b84356000908152600c602090815260409182902060018101549092600160801b9091046001600160801b031691610a659189019089016156bf565b6001600160801b0316816001600160801b03161015610a8357600080fd5b60018281015469ffffffffffffffffffff166000908152600b60209081526040808320815160608101835281546001600160a01b039081168252919095015490811692850192909252600160a01b90910462ffffff1690830152610b077f00000000000000000000000000000000000000000000000000000000000000008361340e565b60018501549091506001600160a01b0382169063a34123a7906a01000000000000000000008104600290810b91600160681b9004900b610b4d60408e0160208f016156bf565b6040518463ffffffff1660e01b8152600401610b6b93929190615aa8565b6040805180830381600087803b158015610b8457600080fd5b505af1158015610b98573d6000803e3d6000fd5b505050506040513d601f19601f82011682018060405250810190610bbc9190615851565b909850965060408901358810801590610bd9575088606001358710155b610bf55760405162461bcd60e51b815260040161086e90615ba9565b6001840154600090610c259030906a01000000000000000000008104600290810b91600160681b9004900b61350a565b9050600080836001600160a01b031663514ea4bf846040518263ffffffff1660e01b8152600401610c569190615a86565b60a06040518083038186803b158015610c6e57600080fd5b505afa158015610c82573d6000803e3d6000fd5b505050506040513d601f19601f82011682018060405250810190610ca69190615709565b50509250925050610ccb87600201548303876001600160801b0316600160801b613564565b6004880180546fffffffffffffffffffffffffffffffff198116928e016001600160801b039182160181169290921790556003880154610d1591908303908816600160801b613564565b6004880180546001600160801b03808216938e01600160801b9283900482160116029190911790556002870182905560038701819055610d5b60408d0160208e016156bf565b86038760010160106101000a8154816001600160801b0302191690836001600160801b031602179055508b600001357f26f6a048ee9138f2c0ce266f322cb99228e8d619ae2bff30c67f8dcf9d2377b48d6020016020810190610dbe91906156bf565b8d8d604051610dcf93929190615c8e565b60405180910390a2505050505050505050915091565b4715610df557610df53347613613565b565b6000836001600160a01b0316856001600160a01b031610610e1757600080fd5b7f00000000000000000000000000000000000000000000000000000000000000006001600160a01b0316631698ee828686866040518463ffffffff1660e01b815260040180846001600160a01b03168152602001836001600160a01b031681526020018262ffffff168152602001935050505060206040518083038186803b158015610ea257600080fd5b505afa158015610eb6573d6000803e3d6000fd5b505050506040513d6020811015610ecc57600080fd5b505190506001600160a01b03811661101b577f00000000000000000000000000000000000000000000000000000000000000006001600160a01b031663a16712958686866040518463ffffffff1660e01b815260040180846001600160a01b03168152602001836001600160a01b031681526020018262ffffff1681526020019350505050602060405180830381600087803b158015610f6b57600080fd5b505af1158015610f7f573d6000803e3d6000fd5b505050506040513d6020811015610f9557600080fd5b5051604080517ff637731d0000000000000000000000000000000000000000000000000000000081526001600160a01b03858116600483015291519293509083169163f637731d9160248082019260009290919082900301818387803b158015610ffe57600080fd5b505af1158015611012573d6000803e3d6000fd5b505050506110fc565b6000816001600160a01b0316633850c7bd6040518163ffffffff1660e01b815260040160e06040518083038186803b15801561105657600080fd5b505afa15801561106a573d6000803e3d6000fd5b505050506040513d60e081101561108057600080fd5b505190506001600160a01b0381166110fa57816001600160a01b031663f637731d846040518263ffffffff1660e01b815260040180826001600160a01b03168152602001915050600060405180830381600087803b1580156110e157600080fd5b505af11580156110f5573d6000803e3d6000fd5b505050505b505b949350505050565b6000611110600261371c565b905090565b60008060008360a0013580611128613408565b111561117b576040805162461bcd60e51b815260206004820152601360248201527f5472616e73616374696f6e20746f6f206f6c6400000000000000000000000000604482015290519081900360640190fd5b84356000908152600c6020908152604080832060018082015469ffffffffffffffffffff81168652600b855283862084516060808201875282546001600160a01b039081168352929094015480831682890190815262ffffff600160a01b9092048216838901908152885161014081018a528451861681529151909416818a01529251168287015230828501526a01000000000000000000008304600290810b810b608080850191909152600160681b909404810b900b60a0830152958c013560c0820152938b013560e0850152908a0135610100840152890135610120830152929061126790613727565b6001870154939a50919850965091506000906112a19030906a01000000000000000000008104600290810b91600160681b9004900b61350a565b9050600080836001600160a01b031663514ea4bf846040518263ffffffff1660e01b81526004016112d29190615a86565b60a06040518083038186803b1580156112ea57600080fd5b505afa1580156112fe573d6000803e3d6000fd5b505050506040513d601f19601f820116820180604052508101906113229190615709565b5050925092505061135e866002015483038760010160109054906101000a90046001600160801b03166001600160801b0316600160801b613564565b6004870180546001600160801b0380821690930183166fffffffffffffffffffffffffffffffff19909116179055600387015460018801546113ae9291840391600160801b918290041690613564565b6004870180546001600160801b03600160801b80830482169094018116840291811691909117909155600288018490556003880183905560018801805483810483168e018316909302929091169190911790556040518b35907f3067048beee31b25b2f1681f88dac838c8bba36af25bfb2b7cf7473a5847e35f90611438908d908d908d90615c8e565b60405180910390a2505050505050509193909250565b61145f6114596132e4565b8261336c565b61149a5760405162461bcd60e51b81526004018080602001828103825260318152602001806160c86031913960400191505060405180910390fd5b610974838383613a2c565b6001600160a01b03821660009081526001602052604081206114c79083613b78565b90505b92915050565b7f49ecf333e5b8c95c40fdafc95c1ad136e8914a8fb55e9dc8bb01eaa83a2df9ad81565b60007f8b73c3c69bb8fe3d512ecc4cf759cc79239f7b179b0ffacaa9a75d522b39400f7f00000000000000000000000000000000000000000000000000000000000000007f0000000000000000000000000000000000000000000000000000000000000000611561613b84565b3060405160200180868152602001858152602001848152602001838152602001826001600160a01b031681526020019550505050505060405160208183030381529060405280519060200120905090565b600e55565b61097483838360405180602001604052806000815250612955565b806115dd338261336c565b6115f95760405162461bcd60e51b815260040161086e90615b15565b6000828152600c602052604090206001810154600160801b90046001600160801b0316158015611634575060048101546001600160801b0316155b801561165257506004810154600160801b90046001600160801b0316155b61166e5760405162461bcd60e51b815260040161086e90615c17565b6000838152600c602052604081208181556001810182905560028101829055600381018290556004015561097483613b88565b604080517f8fcbaf0c00000000000000000000000000000000000000000000000000000000815233600482015230602482015260448101879052606481018690526001608482015260ff851660a482015260c4810184905260e4810183905290516001600160a01b03881691638fcbaf0c9161010480830192600092919082900301818387803b15801561173457600080fd5b505af1158015611748573d6000803e3d6000fd5b50505050505050505050565b60007f00000000000000000000000000000000000000000000000000000000000000006001600160a01b03166370a08231306040518263ffffffff1660e01b815260040180826001600160a01b0316815260200191505060206040518083038186803b1580156117c357600080fd5b505afa1580156117d7573d6000803e3d6000fd5b505050506040513d60208110156117ed57600080fd5b5051905082811015611846576040805162461bcd60e51b815260206004820152601260248201527f496e73756666696369656e742057455448390000000000000000000000000000604482015290519081900360640190fd5b8015610974577f00000000000000000000000000000000000000000000000000000000000000006001600160a01b0316632e1a7d4d826040518263ffffffff1660e01b815260040180828152602001915050600060405180830381600087803b1580156118b257600080fd5b505af11580156118c6573d6000803e3d6000fd5b505050506109748282613613565b7f000000000000000000000000000000000000000000000000000000000000000081565b600080611906600284613c55565b509392505050565b60006114ca826040518060600160405280602981526020016160336029913960029190613c73565b606090565b60006001600160a01b0382166119825760405162461bcd60e51b815260040180806020018281038252602a815260200180616009602a913960400191505060405180910390fd5b6001600160a01b03821660009081526001602052604090206114ca9061371c565b836119ac613408565b11156119ff576040805162461bcd60e51b815260206004820152600e60248201527f5065726d69742065787069726564000000000000000000000000000000000000604482015290519081900360640190fd5b6000611a096114f4565b7f49ecf333e5b8c95c40fdafc95c1ad136e8914a8fb55e9dc8bb01eaa83a2df9ad8888611a3581613c80565b604080516020808201969096526001600160a01b03909416848201526060840192909252608083015260a08083018a90528151808403909101815260c0830182528051908401207f190100000000000000000000000000000000000000000000000000000000000060e084015260e283019490945261010280830194909452805180830390940184526101229091019052815191012090506000611ad88761190e565b9050806001600160a01b0316886001600160a01b03161415611b2b5760405162461bcd60e51b8152600401808060200182810382526027815260200180615f346027913960400191505060405180910390fd5b611b3481613cbf565b15611d0f576040805160208082018790528183018690527fff0000000000000000000000000000000000000000000000000000000000000060f889901b16606083015282516041818403018152606183018085527f1626ba7e0000000000000000000000000000000000000000000000000000000090526065830186815260858401948552815160a585015281516001600160a01b03871695631626ba7e958995919260c59091019185019080838360005b83811015611bfe578181015183820152602001611be6565b50505050905090810190601f168015611c2b5780820380516001836020036101000a031916815260200191505b50935050505060206040518083038186803b158015611c4957600080fd5b505afa158015611c5d573d6000803e3d6000fd5b505050506040513d6020811015611c7357600080fd5b50517fffffffff00000000000000000000000000000000000000000000000000000000167f1626ba7e0000000000000000000000000000000000000000000000000000000014611d0a576040805162461bcd60e51b815260206004820152600c60248201527f556e617574686f72697a65640000000000000000000000000000000000000000604482015290519081900360640190fd5b611e3b565b600060018387878760405160008152602001604052604051808581526020018460ff1681526020018381526020018281526020019450505050506020604051602081039080840390855afa158015611d6b573d6000803e3d6000fd5b5050604051601f1901519150506001600160a01b038116611dd3576040805162461bcd60e51b815260206004820152601160248201527f496e76616c6964207369676e6174757265000000000000000000000000000000604482015290519081900360640190fd5b816001600160a01b0316816001600160a01b031614611e39576040805162461bcd60e51b815260206004820152600c60248201527f556e617574686f72697a65640000000000000000000000000000000000000000604482015290519081900360640190fd5b505b611e4588886132e8565b5050505050505050565b60008060008084610140013580611e64613408565b1115611eb7576040805162461bcd60e51b815260206004820152601360248201527f5472616e73616374696f6e20746f6f206f6c6400000000000000000000000000604482015290519081900360640190fd5b604080516101408101909152600090611f839080611ed860208b018b61520c565b6001600160a01b03168152602001896020016020810190611ef9919061520c565b6001600160a01b03168152602001611f1760608b0160408c016157fb565b62ffffff168152306020820152604001611f3760808b0160608c01615543565b60020b8152602001611f4f60a08b0160808c01615543565b60020b81526020018960a0013581526020018960c0013581526020018960e001358152602001896101000135815250613727565b92975090955093509050611ff7611fa261014089016101208a0161520c565b600d80547fffffffffffffffffffff000000000000000000000000000000000000000000008116600175ffffffffffffffffffffffffffffffffffffffffffff92831690810190921617909155975087613cc5565b60006120223061200d60808b0160608c01615543565b61201d60a08c0160808d01615543565b61350a565b9050600080836001600160a01b031663514ea4bf846040518263ffffffff1660e01b81526004016120539190615a86565b60a06040518083038186803b15801561206b57600080fd5b505afa15801561207f573d6000803e3d6000fd5b505050506040513d601f19601f820116820180604052508101906120a39190615709565b50509250925050600061211c8560405180606001604052808e60000160208101906120ce919061520c565b6001600160a01b031681526020018e60200160208101906120ef919061520c565b6001600160a01b031681526020018e604001602081019061211091906157fb565b62ffffff169052613df3565b905060405180610140016040528060006bffffffffffffffffffffffff16815260200160006001600160a01b031681526020018269ffffffffffffffffffff1681526020018c60600160208101906121749190615543565b60020b815260200161218c60a08e0160808f01615543565b60020b81526020018a6001600160801b0316815260200184815260200183815260200160006001600160801b0316815260200160006001600160801b0316815250600c60008c815260200190815260200160002060008201518160000160006101000a8154816bffffffffffffffffffffffff02191690836bffffffffffffffffffffffff160217905550602082015181600001600c6101000a8154816001600160a01b0302191690836001600160a01b0316021790555060408201518160010160006101000a81548169ffffffffffffffffffff021916908369ffffffffffffffffffff160217905550606082015181600101600a6101000a81548162ffffff021916908360020b62ffffff160217905550608082015181600101600d6101000a81548162ffffff021916908360020b62ffffff16021790555060a08201518160010160106101000a8154816001600160801b0302191690836001600160801b0316021790555060c0820151816002015560e082015181600301556101008201518160040160006101000a8154816001600160801b0302191690836001600160801b031602179055506101208201518160040160106101000a8154816001600160801b0302191690836001600160801b03160217905550905050897f3067048beee31b25b2f1681f88dac838c8bba36af25bfb2b7cf7473a5847e35f8a8a8a60405161239b93929190615c8e565b60405180910390a25050505050509193509193565b60078054604080516020601f600260001961010060018816150201909516949094049384018190048102820181019092528281526060939092909183018282801561083d5780601f106108125761010080835404028352916020019161083d565b6000818152600c6020908152604080832081516101408101835281546bffffffffffffffffffffffff811682526001600160a01b036c010000000000000000000000009091041693810193909352600181015469ffffffffffffffffffff81169284018390526a01000000000000000000008104600290810b810b810b6060860152600160681b8204810b810b810b60808601526001600160801b03600160801b92839004811660a08701529083015460c0860152600383015460e08601526004909201548083166101008601520416610120830152829182918291829182918291829182918291829182919061251a5760405162461bcd60e51b815260040161086e90615be0565b6000600b6000836040015169ffffffffffffffffffff1669ffffffffffffffffffff1681526020019081526020016000206040518060600160405290816000820160009054906101000a90046001600160a01b03166001600160a01b03166001600160a01b031681526020016001820160009054906101000a90046001600160a01b03166001600160a01b03166001600160a01b031681526020016001820160149054906101000a900462ffffff1662ffffff1662ffffff1681525050905081600001518260200151826000015183602001518460400151866060015187608001518860a001518960c001518a60e001518b61010001518c61012001519d509d509d509d509d509d509d509d509d509d509d509d50505091939597999b5091939597999b565b6126486132e4565b6001600160a01b0316826001600160a01b031614156126ae576040805162461bcd60e51b815260206004820152601960248201527f4552433732313a20617070726f766520746f2063616c6c657200000000000000604482015290519081900360640190fd5b80600560006126bb6132e4565b6001600160a01b0390811682526020808301939093526040918201600090812091871680825291909352912080547fffffffffffffffffffffffffffffffffffffffffffffffffffffffffffffff00169215159290921790915561271d6132e4565b6001600160a01b03167f17307eab39ab6107e8899845ad3d59bd9653f200f220920489ca2b5937696c318360405180821515815260200191505060405180910390a35050565b604080517fdd62ed3e0000000000000000000000000000000000000000000000000000000081523360048201523060248201529051600019916001600160a01b0389169163dd62ed3e91604480820192602092909190829003018186803b1580156127cd57600080fd5b505afa1580156127e1573d6000803e3d6000fd5b505050506040513d60208110156127f757600080fd5b5051101561280d5761280d8686868686866116a1565b505050505050565b60608167ffffffffffffffff8111801561282e57600080fd5b5060405190808252806020026020018201604052801561286257816020015b606081526020019060019003908161284d5790505b50905060005b8281101561294e576000803086868581811061288057fe5b90506020028101906128929190615db4565b6040516128a092919061592f565b600060405180830381855af49150503d80600081146128db576040519150601f19603f3d011682016040523d82523d6000602084013e6128e0565b606091505b50915091508161292c576044815110156128f957600080fd5b60048101905080806020019051810190612913919061555f565b60405162461bcd60e51b815260040161086e9190615b02565b8084848151811061293957fe5b60209081029190910101525050600101612868565b5092915050565b6129666129606132e4565b8361336c565b6129a15760405162461bcd60e51b81526004018080602001828103825260318152602001806160c86031913960400191505060405180910390fd5b6129ad84848484613f43565b50505050565b604080517fdd62ed3e000000000000000000000000000000000000000000000000000000008152336004820152306024820152905186916001600160a01b0389169163dd62ed3e91604480820192602092909190829003018186803b158015612a1b57600080fd5b505afa158015612a2f573d6000803e3d6000fd5b505050506040513d6020811015612a4557600080fd5b5051101561280d5761280d868686868686612d2e565b7f000000000000000000000000000000000000000000000000000000000000000081565b6060612a8a826132d7565b612a9357600080fd5b6040517fe9dc63750000000000000000000000000000000000000000000000000000000081526001600160a01b037f0000000000000000000000000000000000000000000000000000000000000000169063e9dc637590612afa9030908690600401615a8f565b60006040518083038186803b158015612b1257600080fd5b505afa158015612b26573d6000803e3d6000fd5b505050506040513d6000823e601f3d908101601f191682016040526114ca919081019061555f565b6000612b5c82840184615602565b9050612b8c7f00000000000000000000000000000000000000000000000000000000000000008260000151613f95565b5080602001516001600160a01b0316336001600160a01b03167fb112349b8e5bb6148517e1fac1268a581be56f3980b5af916d06d854dd018c808787604051612bd6929190615d07565b60405180910390a38415612bf8578051516020820151612bf891903388613fb8565b8315612c1657612c1681600001516020015182602001513387613fb8565b5050505050565b6000836001600160a01b03166370a08231306040518263ffffffff1660e01b815260040180826001600160a01b0316815260200191505060206040518083038186803b158015612c6c57600080fd5b505afa158015612c80573d6000803e3d6000fd5b505050506040513d6020811015612c9657600080fd5b5051905082811015612cef576040805162461bcd60e51b815260206004820152601260248201527f496e73756666696369656e7420746f6b656e0000000000000000000000000000604482015290519081900360640190fd5b80156129ad576129ad848383614148565b6001600160a01b03918216600090815260056020908152604080832093909416825291909152205460ff1690565b604080517fd505accf000000000000000000000000000000000000000000000000000000008152336004820152306024820152604481018790526064810186905260ff8516608482015260a4810184905260c4810183905290516001600160a01b0388169163d505accf9160e480830192600092919082900301818387803b15801561173457600080fd5b6000808235612dc8338261336c565b612de45760405162461bcd60e51b815260040161086e90615b15565b6000612df660608601604087016156bf565b6001600160801b03161180612e2357506000612e1860808601606087016156bf565b6001600160801b0316115b612e2c57600080fd5b600080612e3f604087016020880161520c565b6001600160a01b031614612e6257612e5d604086016020870161520c565b612e64565b305b85356000908152600c6020908152604080832060018082015469ffffffffffffffffffff168552600b8452828520835160608101855281546001600160a01b039081168252919092015490811694820194909452600160a01b90930462ffffff169183019190915292935090612efa7f00000000000000000000000000000000000000000000000000000000000000008361340e565b600484015460018501549192506001600160801b0380821692600160801b92839004821692900416156131175760018501546040517fa34123a70000000000000000000000000000000000000000000000000000000081526001600160a01b0385169163a34123a791612f91916a01000000000000000000008104600290810b92600160681b909204900b90600090600401615aa8565b6040805180830381600087803b158015612faa57600080fd5b505af1158015612fbe573d6000803e3d6000fd5b505050506040513d601f19601f82011682018060405250810190612fe29190615851565b5050600185015460009081906001600160a01b0386169063514ea4bf906130279030906a01000000000000000000008104600290810b91600160681b9004900b61350a565b6040518263ffffffff1660e01b81526004016130439190615a86565b60a06040518083038186803b15801561305b57600080fd5b505afa15801561306f573d6000803e3d6000fd5b505050506040513d601f19601f820116820180604052508101906130939190615709565b505092509250506130cf876002015483038860010160109054906101000a90046001600160801b03166001600160801b0316600160801b613564565b84019350613108876003015482038860010160109054906101000a90046001600160801b03166001600160801b0316600160801b613564565b60028801929092556003870155015b6000806001600160801b03841661313460608e0160408f016156bf565b6001600160801b0316116131575761315260608d0160408e016156bf565b613159565b835b836001600160801b03168d606001602081019061317691906156bf565b6001600160801b0316116131995761319460808e0160608f016156bf565b61319b565b835b60018901546040517f4f1eb3d80000000000000000000000000000000000000000000000000000000081529294509092506001600160a01b03871691634f1eb3d89161320e918c916a01000000000000000000008104600290810b92600160681b909204900b9088908890600401615996565b6040805180830381600087803b15801561322757600080fd5b505af115801561323b573d6000803e3d6000fd5b505050506040513d601f19601f8201168201806040525081019061325f91906156db565b6004890180546fffffffffffffffffffffffffffffffff196001600160801b03918216600160801b878a0384160217168689038216179091556040519281169d50169a508c35907f40d0efd1a53d60ecbf40971b9daf7dc90178c3aadc7aab1765632738fa8b8f0190610dcf908b90869086906159d3565b60006114ca6002836142d8565b3390565b6000818152600c6020526040902080546bffffffffffffffffffffffff166c010000000000000000000000006001600160a01b0385169081029190911790915581906133338261190e565b6001600160a01b03167f8c5be1e5ebec7d5bd14f71427d1e84f3dd0314c0f7b2291e5b200ac8c7c3b92560405160405180910390a45050565b6000613377826132d7565b6133b25760405162461bcd60e51b815260040180806020018281038252602c815260200180615fa5602c913960400191505060405180910390fd5b60006133bd8361190e565b9050806001600160a01b0316846001600160a01b031614806133f85750836001600160a01b03166133ed84610847565b6001600160a01b0316145b806110fc57506110fc8185612d00565b600e5490565b600081602001516001600160a01b031682600001516001600160a01b03161061343657600080fd5b50805160208083015160409384015184516001600160a01b0394851681850152939091168385015262ffffff166060808401919091528351808403820181526080840185528051908301207fff0000000000000000000000000000000000000000000000000000000000000060a085015294901b6bffffffffffffffffffffffff191660a183015260b58201939093527fe34f199b19b2b4f47f68442619d555527d244f78a3297ea89325f843f87b8b5460d5808301919091528251808303909101815260f5909101909152805191012090565b604080516bffffffffffffffffffffffff19606086901b16602080830191909152600285810b60e890811b60348501529085900b901b60378301528251601a818403018152603a90920190925280519101205b9392505050565b600080806000198587098686029250828110908390030390508061359a576000841161358f57600080fd5b50829004905061355d565b8084116135a657600080fd5b6000848688096000868103871696879004966002600389028118808a02820302808a02820302808a02820302808a02820302808a02820302808a02909103029181900381900460010186841190950394909402919094039290920491909117919091029150509392505050565b604080516000808252602082019092526001600160a01b0384169083906040518082805190602001908083835b6020831061365f5780518252601f199092019160209182019101613640565b6001836020036101000a03801982511681845116808217855250505050505090500191505060006040518083038185875af1925050503d80600081146136c1576040519150601f19603f3d011682016040523d82523d6000602084013e6136c6565b606091505b5050905080610974576040805162461bcd60e51b815260206004820152600360248201527f5354450000000000000000000000000000000000000000000000000000000000604482015290519081900360640190fd5b60006114ca826142e4565b6000806000806000604051806060016040528087600001516001600160a01b0316815260200187602001516001600160a01b03168152602001876040015162ffffff1681525090506137997f00000000000000000000000000000000000000000000000000000000000000008261340e565b91506000826001600160a01b0316633850c7bd6040518163ffffffff1660e01b815260040160e06040518083038186803b1580156137d657600080fd5b505afa1580156137ea573d6000803e3d6000fd5b505050506040513d601f19601f8201168201806040525081019061380e919061576a565b5050505050509050600061382588608001516142e8565b905060006138368960a001516142e8565b9050846001600160a01b03167f9a1f4a2b94c41101fece638fa6bdea1cac5dbdd416420fe9c688938980a041d48484848d60c001518e60e00151604051613881959493929190615caf565b60405180910390a261389e8383838c60c001518d60e00151614636565b9750846001600160a01b03167fa24f3c0947c96379f400cb641462aaccea6bdafb746544d352c8239783c06710898b60c001518c60e001516040516138e593929190615c8e565b60405180910390a2505050816001600160a01b0316633c8a7d8d876060015188608001518960a00151896040518060400160405280888152602001336001600160a01b031681525060405160200161393d9190615c4e565b6040516020818303038152906040526040518663ffffffff1660e01b815260040161396c959493929190615953565b6040805180830381600087803b15801561398557600080fd5b505af1158015613999573d6000803e3d6000fd5b505050506040513d601f19601f820116820180604052508101906139bd9190615851565b809450819550505085606001516001600160a01b0316826001600160a01b03167f9cf30dfeaa945bf844a8301e02ab9de2ce7c9918c3d67fde70425848e4ddf28388608001518960a00151898989604051613a1c959493929190615ace565b60405180910390a3509193509193565b826001600160a01b0316613a3f8261190e565b6001600160a01b031614613a845760405162461bcd60e51b815260040180806020018281038252602981526020018061607e6029913960400191505060405180910390fd5b6001600160a01b038216613ac95760405162461bcd60e51b8152600401808060200182810382526024815260200180615f5b6024913960400191505060405180910390fd5b613ad4838383610974565b613adf6000826132e8565b6001600160a01b0383166000908152600160205260409020613b0190826146fa565b506001600160a01b0382166000908152600160205260409020613b249082614706565b50613b3160028284614712565b5080826001600160a01b0316846001600160a01b03167fddf252ad1be2c89b69c2b068fc378daa952ba7f163c4a11628f55a4df523b3ef60405160405180910390a4505050565b60006114c78383614728565b4690565b6000613b938261190e565b9050613ba181600084610974565b613bac6000836132e8565b6000828152600860205260409020546002600019610100600184161502019091160415613bea576000828152600860205260408120613bea9161517c565b6001600160a01b0381166000908152600160205260409020613c0c90836146fa565b50613c1860028361478c565b5060405182906000906001600160a01b038416907fddf252ad1be2c89b69c2b068fc378daa952ba7f163c4a11628f55a4df523b3ef908390a45050565b6000808080613c648686614798565b909450925050505b9250929050565b60006110fc848484614813565b6000908152600c6020526040902080546bffffffffffffffffffffffff19811660016bffffffffffffffffffffffff9283169081019092161790915590565b3b151590565b6001600160a01b038216613d20576040805162461bcd60e51b815260206004820181905260248201527f4552433732313a206d696e7420746f20746865207a65726f2061646472657373604482015290519081900360640190fd5b613d29816132d7565b15613d7b576040805162461bcd60e51b815260206004820152601c60248201527f4552433732313a20746f6b656e20616c7265616479206d696e74656400000000604482015290519081900360640190fd5b613d8760008383610974565b6001600160a01b0382166000908152600160205260409020613da99082614706565b50613db660028284614712565b5060405181906001600160a01b038416906000907fddf252ad1be2c89b69c2b068fc378daa952ba7f163c4a11628f55a4df523b3ef908290a45050565b6001600160a01b0382166000908152600a602052604090205469ffffffffffffffffffff16806114ca5750600d8054600169ffffffffffffffffffff76010000000000000000000000000000000000000000000080840482168381019092160275ffffffffffffffffffffffffffffffffffffffffffff909316929092179092556001600160a01b038085166000908152600a6020908152604080832080547fffffffffffffffffffffffffffffffffffffffffffff000000000000000000001686179055848352600b825291829020865181549085167fffffffffffffffffffffffff000000000000000000000000000000000000000091821617825591870151950180549287015162ffffff16600160a01b027fffffffffffffffffff000000ffffffffffffffffffffffffffffffffffffffff969094169290911691909117939093161790915592915050565b613f4e848484613a2c565b613f5a848484846148dd565b6129ad5760405162461bcd60e51b8152600401808060200182810382526032815260200180615f026032913960400191505060405180910390fd5b6000613fa1838361340e565b9050336001600160a01b038216146114ca57600080fd5b7f00000000000000000000000000000000000000000000000000000000000000006001600160a01b0316846001600160a01b0316148015613ff95750804710155b1561411b577f00000000000000000000000000000000000000000000000000000000000000006001600160a01b031663d0e30db0826040518263ffffffff1660e01b81526004016000604051808303818588803b15801561405957600080fd5b505af115801561406d573d6000803e3d6000fd5b50505050507f00000000000000000000000000000000000000000000000000000000000000006001600160a01b031663a9059cbb83836040518363ffffffff1660e01b815260040180836001600160a01b0316815260200182815260200192505050602060405180830381600087803b1580156140e957600080fd5b505af11580156140fd573d6000803e3d6000fd5b505050506040513d602081101561411357600080fd5b506129ad9050565b6001600160a01b03831630141561413c57614137848383614148565b6129ad565b6129ad84848484614ab9565b604080516001600160a01b038481166024830152604480830185905283518084039091018152606490920183526020820180517bffffffffffffffffffffffffffffffffffffffffffffffffffffffff167fa9059cbb000000000000000000000000000000000000000000000000000000001781529251825160009485949389169392918291908083835b602083106141f25780518252601f1990920191602091820191016141d3565b6001836020036101000a0380198251168184511680821785525050505050509050019150506000604051808303816000865af19150503d8060008114614254576040519150601f19603f3d011682016040523d82523d6000602084013e614259565b606091505b5091509150818015614287575080511580614287575080806020019051602081101561428457600080fd5b50515b612c16576040805162461bcd60e51b815260206004820152600260248201527f5354000000000000000000000000000000000000000000000000000000000000604482015290519081900360640190fd5b60006114c78383614c51565b5490565b60008060008360020b126142ff578260020b614307565b8260020b6000035b9050620d89e8811115614361576040805162461bcd60e51b815260206004820152600160248201527f5400000000000000000000000000000000000000000000000000000000000000604482015290519081900360640190fd5b60006001821661437557600160801b614387565b6ffffcb933bd6fad37aa2d162d1a5940015b70ffffffffffffffffffffffffffffffffff16905060028216156143bb576ffff97272373d413259a46990580e213a0260801c5b60048216156143da576ffff2e50f5f656932ef12357cf3c7fdcc0260801c5b60088216156143f9576fffe5caca7e10e4e61c3624eaa0941cd00260801c5b6010821615614418576fffcb9843d60f6159c9db58835c9266440260801c5b6020821615614437576fff973b41fa98c081472e6896dfb254c00260801c5b6040821615614456576fff2ea16466c96a3843ec78b326b528610260801c5b6080821615614475576ffe5dee046a99a2a811c461f1969c30530260801c5b610100821615614495576ffcbe86c7900a88aedcffc83b479aa3a40260801c5b6102008216156144b5576ff987a7253ac413176f2b074cf7815e540260801c5b6104008216156144d5576ff3392b0822b70005940c7a398e4b70f30260801c5b6108008216156144f5576fe7159475a2c29b7443b29c7fa6e889d90260801c5b611000821615614515576fd097f3bdfd2022b8845ad8f792aa58250260801c5b612000821615614535576fa9f746462d870fdf8a65dc1f90e061e50260801c5b614000821615614555576f70d869a156d2a1b890bb3df62baf32f70260801c5b618000821615614575576f31be135f97d08fd981231505542fcfa60260801c5b62010000821615614596576f09aa508b5b7a84e1c677de54f3e99bc90260801c5b620200008216156145b6576e5d6af8dedb81196699c329225ee6040260801c5b620400008216156145d5576d2216e584f5fa1ea926041bedfe980260801c5b620800008216156145f2576b048a170391f7dc42444e8fa20260801c5b60008460020b131561460d57806000198161460957fe5b0490505b640100000000810615614621576001614624565b60005b60ff16602082901c0192505050919050565b6000836001600160a01b0316856001600160a01b03161115614656579293925b846001600160a01b0316866001600160a01b0316116146815761467a858585614c69565b90506146f1565b836001600160a01b0316866001600160a01b031610156146e35760006146a8878686614c69565b905060006146b7878986614cd5565b9050806001600160801b0316826001600160801b0316106146d857806146da565b815b925050506146f1565b6146ee858584614cd5565b90505b95945050505050565b60006114c78383614d1b565b60006114c78383614de1565b60006110fc84846001600160a01b038516614e2b565b8154600090821061476a5760405162461bcd60e51b8152600401808060200182810382526022815260200180615ee06022913960400191505060405180910390fd5b82600001828154811061477957fe5b9060005260206000200154905092915050565b60006114c78383614ec2565b8154600090819083106147dc5760405162461bcd60e51b815260040180806020018281038252602281526020018061605c6022913960400191505060405180910390fd5b60008460000184815481106147ed57fe5b906000526020600020906002020190508060000154816001015492509250509250929050565b600082815260018401602052604081205482816148ae5760405162461bcd60e51b81526004018080602001828103825283818151815260200191508051906020019080838360005b8381101561487357818101518382015260200161485b565b50505050905090810190601f1680156148a05780820380516001836020036101000a031916815260200191505b509250505060405180910390fd5b508460000160018203815481106148c157fe5b9060005260206000209060020201600101549150509392505050565b60006148f1846001600160a01b0316613cbf565b6148fd575060016110fc565b6000614a4e7f150b7a020000000000000000000000000000000000000000000000000000000061492b6132e4565b88878760405160240180856001600160a01b03168152602001846001600160a01b0316815260200183815260200180602001828103825283818151815260200191508051906020019080838360005b8381101561499257818101518382015260200161497a565b50505050905090810190601f1680156149bf5780820380516001836020036101000a031916815260200191505b5095505050505050604051602081830303815290604052907bffffffffffffffffffffffffffffffffffffffffffffffffffffffff19166020820180517bffffffffffffffffffffffffffffffffffffffffffffffffffffffff8381831617835250505050604051806060016040528060328152602001615f02603291396001600160a01b0388169190614f96565b90506000818060200190516020811015614a6757600080fd5b50517fffffffff00000000000000000000000000000000000000000000000000000000167f150b7a02000000000000000000000000000000000000000000000000000000001492505050949350505050565b604080516001600160a01b0385811660248301528481166044830152606480830185905283518084039091018152608490920183526020820180517bffffffffffffffffffffffffffffffffffffffffffffffffffffffff167f23b872dd00000000000000000000000000000000000000000000000000000000178152925182516000948594938a169392918291908083835b60208310614b6b5780518252601f199092019160209182019101614b4c565b6001836020036101000a0380198251168184511680821785525050505050509050019150506000604051808303816000865af19150503d8060008114614bcd576040519150601f19603f3d011682016040523d82523d6000602084013e614bd2565b606091505b5091509150818015614c00575080511580614c005750808060200190516020811015614bfd57600080fd5b50515b61280d576040805162461bcd60e51b815260206004820152600360248201527f5354460000000000000000000000000000000000000000000000000000000000604482015290519081900360640190fd5b60009081526001919091016020526040902054151590565b6000826001600160a01b0316846001600160a01b03161115614c89579192915b6000614cb5856001600160a01b0316856001600160a01b03166c01000000000000000000000000613564565b90506146f1614cd084838888036001600160a01b0316613564565b614fa5565b6000826001600160a01b0316846001600160a01b03161115614cf5579192915b6110fc614cd0836c010000000000000000000000008787036001600160a01b0316613564565b60008181526001830160205260408120548015614dd75783546000198083019190810190600090879083908110614d4e57fe5b9060005260206000200154905080876000018481548110614d6b57fe5b600091825260208083209091019290925582815260018981019092526040902090840190558654879080614d9b57fe5b600190038181906000526020600020016000905590558660010160008781526020019081526020016000206000905560019450505050506114ca565b60009150506114ca565b6000614ded8383614c51565b614e23575081546001818101845560008481526020808220909301849055845484825282860190935260409020919091556114ca565b5060006114ca565b600082815260018401602052604081205480614e9057505060408051808201825283815260208082018481528654600181810189556000898152848120955160029093029095019182559151908201558654868452818801909252929091205561355d565b82856000016001830381548110614ea357fe5b906000526020600020906002020160010181905550600091505061355d565b60008181526001830160205260408120548015614dd75783546000198083019190810190600090879083908110614ef557fe5b9060005260206000209060020201905080876000018481548110614f1557fe5b600091825260208083208454600290930201918255600193840154918401919091558354825289830190526040902090840190558654879080614f5457fe5b60008281526020808220600260001990940193840201828155600190810183905592909355888152898201909252604082209190915594506114ca9350505050565b60606110fc8484600085614fbb565b806001600160801b03811681146107ac57600080fd5b606082471015614ffc5760405162461bcd60e51b8152600401808060200182810382526026815260200180615f7f6026913960400191505060405180910390fd5b61500585613cbf565b615056576040805162461bcd60e51b815260206004820152601d60248201527f416464726573733a2063616c6c20746f206e6f6e2d636f6e7472616374000000604482015290519081900360640190fd5b600080866001600160a01b031685876040518082805190602001908083835b602083106150945780518252601f199092019160209182019101615075565b6001836020036101000a03801982511681845116808217855250505050505090500191505060006040518083038185875af1925050503d80600081146150f6576040519150601f19603f3d011682016040523d82523d6000602084013e6150fb565b606091505b509150915061510b828286615116565b979650505050505050565b6060831561512557508161355d565b8251156151355782518084602001fd5b60405162461bcd60e51b815260206004820181815284516024840152845185939192839260440191908501908083836000831561487357818101518382015260200161485b565b50805460018160011615610100020316600290046000825580601f106151a257506151c0565b601f0160209004906000526020600020908101906151c091906151c3565b50565b5b808211156151d857600081556001016151c4565b5090565b80356107ac81615e89565b805161ffff811681146107ac57600080fd5b803562ffffff811681146107ac57600080fd5b60006020828403121561521d578081fd5b813561355d81615e89565b6000806040838503121561523a578081fd5b823561524581615e89565b9150602083013561525581615e89565b809150509250929050565b60008060008060808587031215615275578182fd5b843561528081615e89565b9350602085013561529081615e89565b925061529e604086016151f9565b915060608501356152ae81615e89565b939692955090935050565b6000806000606084860312156152cd578081fd5b83356152d881615e89565b925060208401356152e881615e89565b929592945050506040919091013590565b6000806000806080858703121561530e578182fd5b843561531981615e89565b9350602085013561532981615e89565b925060408501359150606085013567ffffffffffffffff81111561534b578182fd5b8501601f8101871361535b578182fd5b803561536e61536982615e3b565b615e17565b818152886020838501011115615382578384fd5b81602084016020830137908101602001929092525092959194509250565b600080604083850312156153b2578182fd5b82356153bd81615e89565b9150602083013561525581615e9e565b600080604083850312156153df578182fd5b82356153ea81615e89565b946020939093013593505050565b60008060006060848603121561540c578081fd5b833561541781615e89565b925060208401359150604084013561542e81615e89565b809150509250925092565b60008060008060008060c08789031215615451578384fd5b863561545c81615e89565b95506020870135945060408701359350606087013561547a81615ed0565b9598949750929560808101359460a0909101359350915050565b600080602083850312156154a6578182fd5b823567ffffffffffffffff808211156154bd578384fd5b818501915085601f8301126154d0578384fd5b8135818111156154de578485fd5b86602080830285010111156154f1578485fd5b60209290920196919550909350505050565b600060208284031215615514578081fd5b81357fffffffff000000000000000000000000000000000000000000000000000000008116811461355d578182fd5b600060208284031215615554578081fd5b813561355d81615eac565b600060208284031215615570578081fd5b815167ffffffffffffffff811115615586578182fd5b8201601f81018413615596578182fd5b80516155a461536982615e3b565b8181528560208385010111156155b8578384fd5b6146f1826020830160208601615e5d565b6000608082840312156155da578081fd5b50919050565b600060a082840312156155da578081fd5b600060c082840312156155da578081fd5b60008183036080811215615614578182fd5b6040516040810167ffffffffffffffff828210818311171561563257fe5b816040526060841215615643578485fd5b60a083019350818410818511171561565757fe5b50826040528435925061566983615e89565b91825260208401359161567b83615e89565b82606083015261568d604086016151f9565b608083015281526156a0606085016151dc565b6020820152949350505050565b600061016082840312156155da578081fd5b6000602082840312156156d0578081fd5b813561355d81615ebb565b600080604083850312156156ed578182fd5b82516156f881615ebb565b602084015190925061525581615ebb565b600080600080600060a08688031215615720578283fd5b855161572b81615ebb565b809550506020860151935060408601519250606086015161574b81615ebb565b608087015190925061575c81615ebb565b809150509295509295909350565b600080600080600080600060e0888a031215615784578485fd5b875161578f81615e89565b60208901519097506157a081615eac565b95506157ae604089016151e7565b94506157bc606089016151e7565b93506157ca608089016151e7565b925060a08801516157da81615ed0565b60c08901519092506157eb81615e9e565b8091505092959891949750929550565b60006020828403121561580c578081fd5b6114c7826151f9565b600060208284031215615826578081fd5b5035919050565b6000806040838503121561583f578182fd5b82359150602083013561525581615e89565b60008060408385031215615863578182fd5b505080516020909101519092909150565b60008060008060608587031215615889578182fd5b8435935060208501359250604085013567ffffffffffffffff808211156158ae578384fd5b818701915087601f8301126158c1578384fd5b8135818111156158cf578485fd5b8860208285010111156158e0578485fd5b95989497505060200194505050565b60008151808452615907816020860160208601615e5d565b601f01601f19169290920160200192915050565b60020b9052565b6001600160801b03169052565b6000828483379101908152919050565b6001600160a01b0391909116815260200190565b60006001600160a01b03871682528560020b60208301528460020b60408301526001600160801b038416606083015260a0608083015261510b60a08301846158ef565b6001600160a01b03959095168552600293840b60208601529190920b60408401526001600160801b03918216606084015216608082015260a00190565b6001600160a01b039390931683526001600160801b03918216602084015216604082015260600190565b6000602080830181845280855180835260408601915060408482028701019250838701855b82811015615a6e577fffffffffffffffffffffffffffffffffffffffffffffffffffffffffffffffc0888603018452615a5c8583516158ef565b94509285019290850190600101615a22565b5092979650505050505050565b901515815260200190565b90815260200190565b6001600160a01b03929092168252602082015260400190565b600293840b81529190920b60208201526001600160801b03909116604082015260600190565b600295860b81529390940b60208401526001600160801b039190911660408301526060820152608081019190915260a00190565b6000602082526114c760208301846158ef565b6020808252600c908201527f4e6f7420617070726f7665640000000000000000000000000000000000000000604082015260600190565b6020808252602c908201527f4552433732313a20617070726f76656420717565727920666f72206e6f6e657860408201527f697374656e7420746f6b656e0000000000000000000000000000000000000000606082015260800190565b60208082526014908201527f507269636520736c69707061676520636865636b000000000000000000000000604082015260600190565b60208082526010908201527f496e76616c696420746f6b656e20494400000000000000000000000000000000604082015260600190565b6020808252600b908201527f4e6f7420636c6561726564000000000000000000000000000000000000000000604082015260600190565b815180516001600160a01b03908116835260208083015182168185015260409283015162ffffff1692840192909252920151909116606082015260800190565b6001600160801b039390931683526020830191909152604082015260600190565b6001600160a01b03958616815293851660208501529190931660408301526060820192909252608081019190915260a00190565b9384526001600160801b039290921660208401526040830152606082015260800190565b918252602082015260400190565b6bffffffffffffffffffffffff8d1681526001600160a01b038c811660208301528b811660408301528a16606082015262ffffff89166080820152600288900b60a08201526101808101615d6c60c083018961591b565b615d7960e0830188615922565b8561010083015284610120830152615d95610140830185615922565b615da3610160830184615922565b9d9c50505050505050505050505050565b60008083357fffffffffffffffffffffffffffffffffffffffffffffffffffffffffffffffe1843603018112615de8578283fd5b83018035915067ffffffffffffffff821115615e02578283fd5b602001915036819003821315613c6c57600080fd5b60405181810167ffffffffffffffff81118282101715615e3357fe5b604052919050565b600067ffffffffffffffff821115615e4f57fe5b50601f01601f191660200190565b60005b83811015615e78578181015183820152602001615e60565b838111156129ad5750506000910152565b6001600160a01b03811681146151c057600080fd5b80151581146151c057600080fd5b8060020b81146151c057600080fd5b6001600160801b03811681146151c057600080fd5b60ff811681146151c057600080fdfe456e756d657261626c655365743a20696e646578206f7574206f6620626f756e64734552433732313a207472616e7366657220746f206e6f6e20455243373231526563656976657220696d706c656d656e7465724552433732315065726d69743a20617070726f76616c20746f2063757272656e74206f776e65724552433732313a207472616e7366657220746f20746865207a65726f2061646472657373416464726573733a20696e73756666696369656e742062616c616e636520666f722063616c6c4552433732313a206f70657261746f7220717565727920666f72206e6f6e6578697374656e7420746f6b656e4552433732313a20617070726f76652063616c6c6572206973206e6f74206f776e6572206e6f7220617070726f76656420666f7220616c6c4552433732313a2062616c616e636520717565727920666f7220746865207a65726f20616464726573734552433732313a206f776e657220717565727920666f72206e6f6e6578697374656e7420746f6b656e456e756d657261626c654d61703a20696e646578206f7574206f6620626f756e64734552433732313a207472616e73666572206f6620746f6b656e2074686174206973206e6f74206f776e4552433732313a20617070726f76616c20746f2063757272656e74206f776e65724552433732313a207472616e736665722063616c6c6572206973206e6f74206f776e6572206e6f7220617070726f766564a164736f6c6343000706000a",
  "linkReferences": {},
  "deployedLinkReferences": {}
}